:020000040800F2
:10000000700400204501000811030008B102000837
:100010000D0300088D010008330D000800000000EA
:1000200000000000000000000000000009060008B9
:10003000910100080000000085030008F506000893
:100040005F0100085F0100085F0100085F01000810
:100050005F0100085F0100085F0100085F01000800
:100060005F0100085F0100085F0100085F010008F0
:100070005F0100085F0100085F0100085F010008E0
:100080005F0100085F0100085F0100085F010008D0
:100090005F0100085F0100085F0100085F010008C0
:1000A0005F0100085F0100085F0100085F010008B0
:1000B0005F0100085F0100085F0100085F010008A0
:1000C0005F0100085F0100085F0100085F01000890
:1000D0005F01000859070008FD0900085F010008DA
:1000E0005F0100085F0100085F0100085F01000870
:1000F0005F0100085F0100085F0100085F01000860
:100100005F0100085F0100085F0100085F0100084F
:100110005F0100085F0100085F0100085F0100083F
:100120005F0100085F0100085F0100085F0100082F
:10013000DFF80CD000F018F8004800472D0F000839
:10014000700400200648804706480047FEE7FEE7A7
:10015000FEE7FEE7FEE7FEE7FEE7FEE7FEE7FEE777
:10016000F906000831010008064C074D06E0E0687A
:1001700040F0010394E8070098471034AC42F6D3EE
:10018000FFF7DAFF481000086810000800BFFEE71C
:1001900070472DE9F041024600250026002000238B
:1001A0000024002791F803C00CF00F0591F803C05C
:1001B0000CF0100CBCF1000F03D091F802C04CEA17
:1001C000050591F800C0BCF1000F31D01468002083
:1001D0002BE04FF0010C0CFA00F3B1F800C00CEA70
:1001E00003069E4220D183004FF00F0C0CFA03F758
:1001F000BC4305FA03FC4CEA040491F803C0BCF1CB
:10020000280F06D14FF0010C0CFA00FCC2F814C004
:100210000AE091F803C0BCF1480F05D14FF0010C82
:100220000CFA00FCC2F810C0401C0828D1D314609E
:10023000B1F800C0BCF1FF0F34DD546800202EE09F
:1002400000F1080C4FF0010808FA0CF3B1F800C0F7
:100250000CEA03069E4221D183004FF00F0C0CFAEA
:1002600003F7BC4305FA03FC4CEA040491F803C00D
:10027000BCF1280F05D100F1080C08FA0CF8C2F8FF
:10028000148091F803C0BCF1480F07D100F1080CAD
:100290004FF0010808FA0CF8C2F81080401C08283A
:1002A000CED35460BDE8F081416170470161704771
:1002B00000BFFEE708B50121082000F085F84FF4E3
:1002C0000070ADF8000003208DF8020010208DF8BA
:1002D000030069460148FFF75CFF08BD000C0140C0
:1002E00008B50121082000F06FF84FF2E010ADF8DA
:1002F000000010208DF8030003208DF802006946ED
:100300000148FFF746FF08BD000C014000BFFEE7B3
:100310007047000070B5002100230F22C47804B399
:10032000154C246804F4E064C4F5E064210AC1F1CA
:100330000403CA40447804FA03F18478144021434A
:1003400009010E4C0678A155047804F01F0501241C
:10035000AC4005786D11AD0005F1E025C5F8004110
:1003600009E0047804F01F050124AC40044D067830
:10037000761145F8264070BD0CED00E000E400E089
:1003800080E100E07047000029B1064AD2690243CB
:10039000044BDA6104E0034AD2698243014BDA611B
:1003A000704700000010024029B1064A126902435A
:1003B000044B1A6104E0034A12698243014B1A613B
:1003C000704700000010024029B1064A92690243BA
:1003D000044B9A6104E0034A92698243014B9A619B
:1003E000704700000010024029B1064AD26802435B
:1003F000044BDA6004E0034AD2688243014BDA60BE
:10040000704700000010024030B500210022002497
:1004100000232D4D6D6805F00C0121B1042905D094
:10042000082923D105E0294D056022E0274D05600C
:100430001FE0254D6D6805F47012234D6D6805F4BD
:100440008034022505EB92421CB9214D55430560CD
:100450000BE01D4D6D6805F400351DB11C4D554375
:10046000056002E0194D5543056002E0174D056037
:1004700000BF00BF144D6D6805F0F0010909154D6E
:100480006B5C0568DD4045600F4D6D6805F4E0610B
:10049000090A104D6B5C4568DD4085600A4D6D684A
:1004A00005F46051C90A0B4D6B5C4568DD40C560C1
:1004B000054D6D6805F44041890B074D6B5CC568BF
:1004C000B5FBF3F5056130BD0010024000127A0063
:1004D00000093D00000000201000002008B50121A7
:1004E0000420FFF771FF7020ADF8000010208DF898
:1004F000030003208DF8020069460248FFF749FE19
:1005000008BD00000008014010B510210548FFF7A4
:10051000CBFE20210348FFF7C7FE40210148FFF72B
:10052000C3FE10BD0008014010B510210548FFF7BB
:10053000BDFE20210348FFF7B7FE40210148FFF729
:10054000B3FE10BD0008014010B510210548FFF7AB
:10055000ABFE20210348FFF7A9FE40210148FFF729
:10056000A3FE10BD0008014010B510210548FFF79B
:100570009BFE20210348FFF797FE40210148FFF72B
:1005800095FE10BD0008014010B510210548FFF789
:100590008DFE20210348FFF789FE40210148FFF727
:1005A00083FE10BD0008014010B510210548FFF77B
:1005B0007DFE20210348FFF777FE40210148FFF729
:1005C00075FE10BD0008014010B510210548FFF769
:1005D0006BFE20210348FFF769FE40210148FFF729
:1005E00065FE10BD0008014010B510210548FFF759
:1005F0005DFE20210348FFF759FE40210148FFF727
:1006000055FE10BD00080140704710B500F002F81B
:1006100010BD00000CB50020019000903348006828
:1006200040F480303149086000BF3048006800F471
:10063000003000900198401C0190009818B9019872
:10064000B0F5A06FF1D12948006800F4003010B176
:100650000120009001E0002000900098012843D183
:100660002348006840F010002149086008460068EF
:1006700020F0030008600846006840F002000860AF
:100680001A4840681949486008464068486008466A
:10069000406840F4806048600846406820F47C1060
:1006A00048600846406840F4E81048600846006822
:1006B00040F08070086000BF0C48006800F00070D7
:1006C0000028F9D00948406820F003000749486035
:1006D0000846406840F00200486000BF0348406898
:1006E00000F00C000828F9D10CBD000000100240F9
:1006F000002002407047000010B51348006840F029
:1007000001001149086008464068104908400E4938
:100710004860084600680E4908400B4908600846D2
:10072000006820F4802008600846406820F4FE003D
:1007300048604FF41F008860FFF767FF4FF00060CC
:100740000449086010BD0000001002400000FFF8DE
:10075000FFFFF6FE08ED00E0F8B540F225517448C1
:1007600000F022FA00287DD040F22551704800F0B8
:10077000B1F96F4800F0D4FAC4B2232C09D06D4807
:100780006D49097840F821406B480078401C6A495F
:100790000870232C66D167480068732855D16548D6
:1007A00040683038642148436249896830390A22F8
:1007B00002FB01015F48C06830380D185D480069D0
:1007C0003038642148435B494969303902FB0101F3
:1007D0005848806930380F185648C069303864214D
:1007E00048435449096A303902FB01015148406AC3
:1007F00030380E184F48406B312803D143204F4901
:10080000087022E04B48006B312803D154204B493B
:1008100008701AE04748C06A312807D14548806A05
:10082000302803D15220454908700EE04148806AC3
:10083000312807D13F48C06A302803D14C203F49B6
:10084000087002E04E203D4908703C2D01DC00F0AC
:10085000A7FBB5F5827F01DB00F0A2FB0020364943
:10086000087000E063E001203549086033480078F3
:1008700043280DD1502E0BDD4FF400713148FFF7A6
:1008800015FD01202E49086000202F4908603FE037
:100890002A48007854280DD1502E0BDD4FF40071FA
:1008A0002848FFF703FD012025490860002026495C
:1008B00008602DE0214800784C280BD14FF40071DE
:1008C0002048FFF7F1FC00201D49086001201E4967
:1008D00008601DE01948007852280BD14FF40071D0
:1008E0001848FFF7E1FC002015490860022016496E
:1008F00008600DE0114800784E2809D14FF40071CE
:100900001048FFF7D1FC00200D4908600E4908602F
:100910000A4800788DF800009DF800009DF801104D
:10092000884204D09DF80110084800F0FEF9F8BD97
:100930000038014024000020200000201400002086
:1009400018000020000C01401C0000200044004062
:1009500000B587B001210420FFF736FD012188038F
:10096000FFF732FD18208DF81B004FF40070ADF832
:10097000180001208DF81A0006A91E48FFF709FC8F
:1009800004208DF81B000002ADF8180001208DF83E
:100990001A0006A91748FFF7FCFB4FF41650029007
:1009A0000020ADF814000C20ADF812000020ADF8C6
:1009B0001000ADF80E00ADF80C0002A90E4800F0D2
:1009C00043F901210C4800F094F8012240F225512E
:1009D000094800F013F925208DF8040001208DF856
:1009E00007008DF805008DF8060001A8FFF792FCBE
:1009F00007B000BD000801400038014010B540F2CA
:100A00002551074800F0D0F848B1054800F088F9B2
:100A10000449087004480178014800F086F910BDC7
:100A200000440040210000201400002010B586B0D2
:100A3000044601210420FFF7C7FC01214804FFF709
:100A4000A3FC224800F062F818208DF8170004205B
:100A5000ADF8140003208DF8160005A91C48FFF717
:100A600098FB04208DF817000820ADF8140005A9A4
:100A70001748FFF78EFB01940020ADF810000C2002
:100A8000ADF80E000020ADF80C00ADF80A00ADF88E
:100A9000080001A90D4800F0D7F801210B4800F02B
:100AA00028F8012240F22551084800F0A7F8262036
:100AB0008DF8000001208DF803008DF801008DF8FD
:100AC00002006846FFF726FC06B010BD0044004057
:100AD0000008014010B50022002340F66A14A1422C
:100AE00000D100BF0A1201249440A3B2DC43048069
:100AF00010BD21B1828942F40052828104E08289D2
:100B00004DF6FF731A4082817047000010B504460D
:100B10002048844209D101218803FFF765FC0021A8
:100B20004FF48040FFF760FC32E01B48844209D15B
:100B300001214804FFF738FC00214FF40030FFF793
:100B400033FC25E01548844209D101218804FFF7D0
:100B50002BFC00214FF48020FFF726FC18E0104802
:100B6000844209D10121C804FFF71EFC00214FF483
:100B70000020FFF719FC0BE00A48844208D101214C
:100B80000805FFF711FC00214FF48010FFF70CFC63
:100B900010BD000000380140004400400048004003
:100BA000004C00400050004070B502460024002375
:100BB0000025002040F66A16B14200D100BFC1F303
:100BC000421501F01F03012606FA03F3012D02D19D
:100BD0009689334006E0022D02D1168A334001E0A7
:100BE000968A33400C12012606FA04F41688344023
:100BF00013B10CB1012000E0002070BDF0B5034638
:100C0000002400260025002040F66A17B94200D1D2
:100C100000BF1846C1F3421401F01F06012707FA6E
:100C200006F5012C01D10C3004E0022C01D110306A
:100C300000E014301AB107682F43076002E007682C
:100C4000AF430760F0BD00002DE9F04786B00546D0
:100C50000E460024A24600BFA1460027B08900B17D
:100C600000BF2F462C8A4CF6FF700440F0880443E6
:100C70002C82AC894EF6F3100440B08831890843C9
:100C8000718908430443AC81AC8A4FF6FF400440AD
:100C9000B0890443AC8201A8FFF7B6FB1F48874226
:100CA00002D1DDF810A001E0DDF80CA0A88900F465
:100CB000004040B10AEBCA0000EB0A10316849005D
:100CC000B0FBF1F807E00AEBCA0000EB0A1031684C
:100CD0008900B0FBF1F86420B8FBF0F004012009B2
:100CE000642101FB1089A88900F4004040B1322042
:100CF00000EBC900B0FBF1F000F00700044308E08E
:100D0000322000EB09106421B0FBF1F000F00F007D
:100D100004432C8106B0BDE8F08700000038014094
:100D200001468888C0F308007047C1F3080282803A
:100D3000704700BFFEE702E008C8121F08C1002A82
:100D4000FAD170477047002001E001C1121F002A4C
:100D5000FBD1704710B5FFF751FE3B4800783028B3
:100D600048D1FFF7F9FC39480068012804D1FFF7A2
:100D7000CBFB00F0B1F865E03448006838B934487E
:100D8000006820B9FFF7D0FB00F0E0F85AE02F48E8
:100D9000006890B92E48006801280ED1FFF7D4FBF7
:100DA00000F0D4F84FF4966000F054F800F022F907
:100DB00041F2680000F04EF844E024480068A0B911
:100DC00023480068022810D1FFF7CEFBFFF7BCFBD9
:100DD00000F0BCF84FF4966000F03CF800F0E0F84A
:100DE00041F2680000F036F82CE0FFF7FDFB00F060
:100DF00073F827E014480078312804D1FFF7C4FBCA
:100E000000F0A4F81EE010480078322804D1FFF763
:100E1000CBFB00F037F815E00B480078332804D1FD
:100E2000FFF7D2FB00F0E6F80CE007480078342822
:100E300004D1FFF7C9FB00F0B3F803E0FFF7D4FBE0
:100E400000F04AF810BD000021000020180000202A
:100E50001C00002010B5044603E04FF47A7000F047
:100E600005F8201EA4F10104F7D110BD014604E0ED
:100E7000002000E0401C0928FCDB0A1EA1F1010152
:100E8000F6D1704710B580211248FFF70DFA4FF4E4
:100E900080711048FFF70AFA4FF400510D48FFF730
:100EA00003FA4FF480510B48FFF700FA402109483C
:100EB000FFF7FAF920210748FFF7F8F94FF400414E
:100EC0000448FFF7F1F94FF480410248FFF7EEF9CB
:100ED00010BD0000000C014010B580211248FFF742
:100EE000E3F94FF480711048FFF7DEF94FF4005139
:100EF0000D48FFF7D9F94FF480510B48FFF7D4F9AB
:100F000040210948FFF7D0F920210748FFF7CCF925
:100F10004FF400410448FFF7C7F94FF480410248FD
:100F2000FFF7C2F910BD0000000C0140FFF710FDF3
:100F30004FF41650FFF77AFDFFF7BCF9FFF7CEFA32
:100F4000FFF7CEF901E0FFF705FFFCE710B58021C0
:100F50001248FFF7ABF94FF480711048FFF7A4F97E
:100F60004FF400510D48FFF7A1F94FF480510B48A1
:100F7000FFF79AF940210948FFF798F9202107481F
:100F8000FFF792F94FF400410448FFF78FF94FF44F
:100F900080410248FFF788F910BD0000000C0140B5
:100FA00010B580211248FFF781F94FF48071104885
:100FB000FFF77AF94FF400510D48FFF775F94FF438
:100FC00080510B48FFF772F940210948FFF76EF98D
:100FD00020210748FFF768F94FF400410448FFF764
:100FE00063F94FF480410248FFF760F910BD00003B
:100FF000000C014010B580211248FFF755F94FF45D
:1010000080711048FFF752F94FF400510D48FFF777
:101010004DF94FF480510B48FFF746F9402109483C
:10102000FFF742F920210748FFF740F94FF400414C
:101030000448FFF73BF94FF480410248FFF734F9C9
:1010400010BD0000000C01406810000800000020E6
:1010500024000000360D00088C1000082400002039
:101060004C040000460D00080000000001020304CB
:101070000102030406070809020406080000000034
:0C10800000000000000000000000000064
:0400000508000131BD
:00000001FF
